:020000020000FC
:100000000C948D010C94D0010C94D3010C94D60166
:100010000C94D901486F6C61204D756E646F21009E
:100020006646232A3132335E3435367637383945E1
:100030003C303E496646232A4142434445464748B0
:10004000494A4B404C4D4E406646232A4F50515230
:1000500053545556575859405A2040406FEF61B994
:1000600003E30E9479000E94390102E30E947900B3
:100070000E94390108E20E9479000E9439010EE0D5
:100080000E9479000E94390101E00E9479000E94DB
:10009000390106E00E9479000E943901089500ECC0
:1000A0000E9479000E943901089506E10E947900BA
:1000B0000E94C0000E94C0000E94C0000E94C000B8
:1000C0000E94C0000E94B300089500E10E947900E0
:1000D0000E94C0000E94C0000E94C0000E94C00098
:1000E0000E94B300089501E00E9479000E94390146
:1000F0000895B02FB07FA2B1AF70AB2BA2B910980A
:100100001198129A0E94440112980E943901B02F4E
:10011000B295B07FA2B1AF70AB2BA2B9129A0E9478
:10012000440112980E94390108950E94B300B02F33
:10013000B07FA2B1AF70AB2BA2B9109A1198129AEE
:100140000E94440112980E943901B02FB295B07FED
:10015000A2B1AF70AB2BA2B9129A0E9444011298BF
:100160000E9439010895842C44245F9351E1952E17
:100170005F910F930E94DF000E94E7000F910895A6
:100180000E9439010E9439010E9439010E943901FF
:100190000E9439010E9439010E9439010E943901EF
:1001A0000E9439010E9439010E9439010E943901DF
:1001B0000E9439010E9439010E9439010895891471
:1001C00028F08A940CE10E947900F9CF08955F939A
:1001D00050E2952E5F91291588F0722E79185F9361
:1001E00051E1952E5F91471444F443944914D8F398
:1001F00008E10E9479000C94F30008955F9351E1A7
:10020000952E5F91421644F443944914D8F308E1C3
:100210000E9479000C94020108955F9351E0652ECD
:100220005F91561410F0C4F40895421674F45F936D
:100230005FE1652E5F91461444F45F9350E1652EB3
:100240005F91461424F4439408955394089543947D
:1002500008E10E94790008955F9351E1652E5F9156
:10026000461414F4552408954A940CE10E94790030
:1002700008950F931F9304E610EA1A95F1F70A9573
:10028000D9F71F910F9108950000000000000000B1
:10029000000000000895AA27112717D000272AD0B0
:1002A0001F9321D00A2F41DF1F9108D00027012F73
:1002B0003CDF1127CC27AA27BB270895BAE00053BB
:1002C0000B9F1019B0E31B0F0895109146001BD02F
:1002D0001C0F133318F012531233E8F71A3010F4CE
:1002E0000AE0100F08951A50A3951A30E0F7B0E312
:1002F000AB0F0895F999FECFC0E0C1BDC2BD10BDDE
:10030000FA9AF99A0895BF93F999FDCFB0E0B2BD7A
:10031000B1BDF89AC0B5BF91089501E20EBF0FEFCD
:100320000DBF0FE00BB908EF07B90FE00DBB0AEAEC
:1003300000936900789401E00093450020E030E0EC
:100340000E942E005F9350E0552E452E252E5F9182
:1003500023955F935FE0652E5F910E94C0000E942D
:10036000C0000E94C0000E94C0000E94C0000E9405
:10037000C0000E94C000261414F42394EACF0E9407
:100380000D010E94C0000E94C0000E94C0000E9497
:10039000C0000E94C0000E94C0000E94C000D9CFCF
:1003A0000E94DC0118950E94DC0118950E94DC0176
:1003B00018950E94DC01189500EF08B90E94F3011E
:1003C00008EE08B90E94F30108ED08B90E94F30194
:1003D00008EB08B90E94F30108E708B90E94F3018D
:1003E00000E008B9089506B1087F10E0003F69F009
:1003F00014E0083E51F018E0083D39F01CE0083BDD
:1004000021F010E1083709F0089509B10F70139534
:100410000E3051F013950D3039F013950B3021F05B
:100420001395073009F008952F3184F011270895AE
:1004300022242F311CF423950E9455000895222474
:10044000223018F02A950E946500089522242F3149
:10045000F0F008950E9473005F9350E0552E452EF2
:10046000252E21E05F9108952C3184F42395239566
:100470000E944B010E94C0000E94C0000E94C00068
:100480000E94C0000E94C0000E94C00008952395F1
:10049000E0E2F0E01A9505911030E1F749B14F70B4
:0C04A0004F30E1F70E94950000270895FE
:00000001FF
